{
  "contractName": "CommunityRewards",
  "abi": [
    {
      "inputs": [
        {
          "internalType": "contract IERC20",
          "name": "token",
          "type": "address"
        }
      ],
      "stateMutability": "nonpayable",
      "type": "constructor"
    },
    {
      "anonymous": false,
      "inputs": [
        {
          "indexed": true,
          "internalType": "address",
          "name": "previousOwner",
          "type": "address"
        },
        {
          "indexed": true,
          "internalType": "address",
          "name": "newOwner",
          "type": "address"
        }
      ],
      "name": "OwnershipTransferred",
      "type": "event"
    },
    {
      "inputs": [],
      "name": "owner",
      "outputs": [
        {
          "internalType": "address",
          "name": "",
          "type": "address"
        }
      ],
      "stateMutability": "view",
      "type": "function",
      "constant": true
    },
    {
      "inputs": [],
      "name": "renounceOwnership",
      "outputs": [],
      "stateMutability": "nonpayable",
      "type": "function"
    },
    {
      "inputs": [
        {
          "internalType": "address",
          "name": "",
          "type": "address"
        }
      ],
      "name": "rewardsInfoByToken",
      "outputs": [
        {
          "internalType": "address",
          "name": "rewardsToken",
          "type": "address"
        },
        {
          "internalType": "uint256",
          "name": "rewardsAmount",
          "type": "uint256"
        }
      ],
      "stateMutability": "view",
      "type": "function",
      "constant": true
    },
    {
      "inputs": [
        {
          "internalType": "address",
          "name": "newOwner",
          "type": "address"
        }
      ],
      "name": "transferOwnership",
      "outputs": [],
      "stateMutability": "nonpayable",
      "type": "function"
    },
    {
      "inputs": [],
      "name": "token",
      "outputs": [
        {
          "internalType": "contract IERC20",
          "name": "",
          "type": "address"
        }
      ],
      "stateMutability": "view",
      "type": "function",
      "constant": true
    },
    {
      "inputs": [
        {
          "components": [
            {
              "internalType": "address",
              "name": "token",
              "type": "address"
            },
            {
              "internalType": "uint256",
              "name": "amount",
              "type": "uint256"
            }
          ],
          "internalType": "struct CommunityRewards.ReportInfo[]",
          "name": "list",
          "type": "tuple[]"
        }
      ],
      "name": "updateRewardsList",
      "outputs": [],
      "stateMutability": "nonpayable",
      "type": "function"
    },
    {
      "inputs": [
        {
          "internalType": "address",
          "name": "rewardsToken",
          "type": "address"
        },
        {
          "internalType": "uint256",
          "name": "claimAmount",
          "type": "uint256"
        }
      ],
      "name": "claimByAdmin",
      "outputs": [],
      "stateMutability": "nonpayable",
      "type": "function"
    },
    {
      "inputs": [
        {
          "internalType": "uint256",
          "name": "claimAmount",
          "type": "uint256"
        }
      ],
      "name": "claim",
      "outputs": [],
      "stateMutability": "nonpayable",
      "type": "function"
    },
    {
      "inputs": [
        {
          "internalType": "address payable",
          "name": "recipientToken",
          "type": "address"
        }
      ],
      "name": "killSelf",
      "outputs": [],
      "stateMutability": "nonpayable",
      "type": "function"
    }
  ],
  "bytecode": "0x60806040523480156200001157600080fd5b5060405162001bed38038062001bed8339818101604052810190620000379190620001c1565b600062000049620001a260201b60201c565b9050806000806101000a81548173ffffffffffffffffffffffffffffffffffffffff021916908373ffffffffffffffffffffffffffffffffffffffff1602179055508073ffffffffffffffffffffffffffffffffffffffff16600073ffffffffffffffffffffffffffffffffffffffff167f8be0079c531659141344cd1fd0a4f28419497f9722a3daafe3b4186f6b6457e060405160405180910390a350600073ffffffffffffffffffffffffffffffffffffffff168173ffffffffffffffffffffffffffffffffffffffff1614156200015a576040517f08c379a000000000000000000000000000000000000000000000000000000000815260040162000151906200022f565b60405180910390fd5b80600160006101000a81548173ffffffffffffffffffffffffffffffffffffffff021916908373ffffffffffffffffffffffffffffffffffffffff16021790555050620002c4565b600033905090565b600081519050620001bb81620002aa565b92915050565b600060208284031215620001d457600080fd5b6000620001e484828501620001aa565b91505092915050565b6000620001fc60198362000251565b91507f746f6b656e20697320746865207a65726f2061646472657373000000000000006000830152602082019050919050565b600060208201905081810360008301526200024a81620001ed565b9050919050565b600082825260208201905092915050565b60006200026f826200028a565b9050919050565b6000620002838262000262565b9050919050565b600073ffffffffffffffffffffffffffffffffffffffff82169050919050565b620002b58162000276565b8114620002c157600080fd5b50565b61191980620002d46000396000f3fe608060405234801561001057600080fd5b50600436106100935760003560e01c80638da5cb5b116100665780638da5cb5b146100f6578063a047b41914610114578063b61fc27114610145578063f2fde38b14610161578063fc0c546a1461017d57610093565b80630c0254bf14610098578063379607f5146100b45780633a507d7d146100d0578063715018a6146100ec575b600080fd5b6100b260048036038101906100ad91906110e8565b61019b565b005b6100ce60048036038101906100c9919061118e565b61023e565b005b6100ea60048036038101906100e591906110bf565b61024b565b005b6100f46102f9565b005b6100fe61044c565b60405161010b919061157d565b60405180910390f35b61012e60048036038101906101299190611096565b610475565b60405161013c929190611598565b60405180910390f35b61015f600480360381019061015a9190611124565b6104b9565b005b61017b60048036038101906101769190611096565b6105e0565b005b6101856107a2565b60405161019291906115c1565b60405180910390f35b6101a36107cc565b73ffffffffffffffffffffffffffffffffffffffff1660008054906101000a900473ffffffffffffffffffffffffffffffffffffffff1673ffffffffffffffffffffffffffffffffffffffff1614610230576040517f08c379a00000000000000000000000000000000000000000000000000000000081526004016102279061167e565b60405180910390fd5b61023a82826107d4565b5050565b61024833826107d4565b50565b6102536107cc565b73ffffffffffffffffffffffffffffffffffffffff1660008054906101000a900473ffffffffffffffffffffffffffffffffffffffff1673ffffffffffffffffffffffffffffffffffffffff16146102e0576040517f08c379a00000000000000000000000000000000000000000000000000000000081526004016102d79061167e565b60405180910390fd5b8073ffffffffffffffffffffffffffffffffffffffff16ff5b6103016107cc565b73ffffffffffffffffffffffffffffffffffffffff1660008054906101000a900473ffffffffffffffffffffffffffffffffffffffff1673ffffffffffffffffffffffffffffffffffffffff161461038e576040517f08c379a00000000000000000000000000000000000000000000000000000000081526004016103859061167e565b60405180910390fd5b600073ffffffffffffffffffffffffffffffffffffffff1660008054906101000a900473ffffffffffffffffffffffffffffffffffffffff1673ffffffffffffffffffffffffffffffffffffffff167f8be0079c531659141344cd1fd0a4f28419497f9722a3daafe3b4186f6b6457e060405160405180910390a360008060006101000a81548173ffffffffffffffffffffffffffffffffffffffff021916908373ffffffffffffffffffffffffffffffffffffffff160217905550565b60008060009054906101000a900473ffffffffffffffffffffffffffffffffffffffff16905090565b60026020528060005260406000206000915090508060000160009054906101000a900473ffffffffffffffffffffffffffffffffffffffff16908060010154905082565b6104c16107cc565b73ffffffffffffffffffffffffffffffffffffffff1660008054906101000a900473ffffffffffffffffffffffffffffffffffffffff1673ffffffffffffffffffffffffffffffffffffffff161461054e576040517f08c379a00000000000000000000000000000000000000000000000000000000081526004016105459061167e565b60405180910390fd5b6000815111610592576040517f08c379a0000000000000000000000000000000000000000000000000000000008152600401610589906115fe565b60405180910390fd5b60005b81518110156105dc576105a6610f43565b8282815181106105b257fe5b602002602001015190506105ce816000015182602001516109c9565b508080600101915050610595565b5050565b6105e86107cc565b73ffffffffffffffffffffffffffffffffffffffff1660008054906101000a900473ffffffffffffffffffffffffffffffffffffffff1673ffffffffffffffffffffffffffffffffffffffff1614610675576040517f08c379a000000000000000000000000000000000000000000000000000000000815260040161066c9061167e565b60405180910390fd5b600073ffffffffffffffffffffffffffffffffffffffff168173ffffffffffffffffffffffffffffffffffffffff1614156106e5576040517f08c379a00000000000000000000000000000000000000000000000000000000081526004016106dc9061161e565b60405180910390fd5b8073ffffffffffffffffffffffffffffffffffffffff1660008054906101000a900473ffffffffffffffffffffffffffffffffffffffff1673ffffffffffffffffffffffffffffffffffffffff167f8be0079c531659141344cd1fd0a4f28419497f9722a3daafe3b4186f6b6457e060405160405180910390a3806000806101000a81548173ffffffffffffffffffffffffffffffffffffffff021916908373ffffffffffffffffffffffffffffffffffffffff16021790555050565b6000600160009054906101000a900473ffffffffffffffffffffffffffffffffffffffff16905090565b600033905090565b600073ffffffffffffffffffffffffffffffffffffffff168273ffffffffffffffffffffffffffffffffffffffff161415610844576040517f08c379a000000000000000000000000000000000000000000000000000000000815260040161083b9061169e565b60405180910390fd5b6000600260008473ffffffffffffffffffffffffffffffffffffffff1673ffffffffffffffffffffffffffffffffffffffff1681526020019081526020016000209050600082116108ca576040517f08c379a00000000000000000000000000000000000000000000000000000000081526004016108c19061171e565b60405180910390fd5b6000816001015411610911576040517f08c379a00000000000000000000000000000000000000000000000000000000081526004016109089061171e565b60405180910390fd5b8060010154821115610958576040517f08c379a000000000000000000000000000000000000000000000000000000000815260040161094f906116de565b60405180910390fd5b6109a58383600160009054906101000a900473ffffffffffffffffffffffffffffffffffffffff1673ffffffffffffffffffffffffffffffffffffffff16610b559092919063ffffffff16565b6109bc828260010154610bdb90919063ffffffff16565b8160010181905550505050565b6012600a0a810290506000600260008473ffffffffffffffffffffffffffffffffffffffff1673ffffffffffffffffffffffffffffffffffffffff1681526020019081526020016000209050600073ffffffffffffffffffffffffffffffffffffffff168160000160009054906101000a900473ffffffffffffffffffffffffffffffffffffffff1673ffffffffffffffffffffffffffffffffffffffff1614610a9157610a84828260010154610c2590919063ffffffff16565b8160010181905550610b50565b60405180604001604052808473ffffffffffffffffffffffffffffffffffffffff16815260200183815250600260008573ffffffffffffffffffffffffffffffffffffffff1673ffffffffffffffffffffffffffffffffffffffff16815260200190815260200160002060008201518160000160006101000a81548173ffffffffffffffffffffffffffffffffffffffff021916908373ffffffffffffffffffffffffffffffffffffffff160217905550602082015181600101559050505b505050565b610bd68363a9059cbb60e01b8484604051602401610b74929190611598565b604051602081830303815290604052907bffffffffffffffffffffffffffffffffffffffffffffffffffffffff19166020820180517bffffffffffffffffffffffffffffffffffffffffffffffffffffffff8381831617835250505050610c7a565b505050565b6000610c1d83836040518060400160405280601e81526020017f536166654d6174683a207375627472616374696f6e206f766572666c6f770000815250610d41565b905092915050565b600080828401905083811015610c70576040517f08c379a0000000000000000000000000000000000000000000000000000000008152600401610c679061163e565b60405180910390fd5b8091505092915050565b6060610cdc826040518060400160405280602081526020017f5361666545524332303a206c6f772d6c6576656c2063616c6c206661696c65648152508573ffffffffffffffffffffffffffffffffffffffff16610d9c9092919063ffffffff16565b9050600081511115610d3c5780806020019051810190610cfc9190611165565b610d3b576040517f08c379a0000000000000000000000000000000000000000000000000000000008152600401610d32906116fe565b60405180910390fd5b5b505050565b6000838311158290610d89576040517f08c379a0000000000000000000000000000000000000000000000000000000008152600401610d8091906115dc565b60405180910390fd5b5060008385039050809150509392505050565b6060610dab8484600085610db4565b90509392505050565b606082471015610df9576040517f08c379a0000000000000000000000000000000000000000000000000000000008152600401610df09061165e565b60405180910390fd5b610e0285610ec9565b610e41576040517f08c379a0000000000000000000000000000000000000000000000000000000008152600401610e38906116be565b60405180910390fd5b600060608673ffffffffffffffffffffffffffffffffffffffff168587604051610e6b9190611566565b60006040518083038185875af1925050503d8060008114610ea8576040519150601f19603f3d011682016040523d82523d6000602084013e610ead565b606091505b5091509150610ebd828286610edc565b92505050949350505050565b600080823b905060008111915050919050565b60608315610eec57829050610f3c565b600083511115610eff5782518084602001fd5b816040517f08c379a0000000000000000000000000000000000000000000000000000000008152600401610f3391906115dc565b60405180910390fd5b9392505050565b6040518060400160405280600073ffffffffffffffffffffffffffffffffffffffff168152602001600081525090565b600081359050610f8281611887565b92915050565b600081359050610f978161189e565b92915050565b600082601f830112610fae57600080fd5b8135610fc1610fbc8261176b565b61173e565b91508181835260208401935060208101905083856040840282011115610fe657600080fd5b60005b838110156110165781610ffc8882611035565b845260208401935060408301925050600181019050610fe9565b5050505092915050565b60008151905061102f816118b5565b92915050565b60006040828403121561104757600080fd5b611051604061173e565b9050600061106184828501610f73565b600083015250602061107584828501611081565b60208301525092915050565b600081359050611090816118cc565b92915050565b6000602082840312156110a857600080fd5b60006110b684828501610f73565b91505092915050565b6000602082840312156110d157600080fd5b60006110df84828501610f88565b91505092915050565b600080604083850312156110fb57600080fd5b600061110985828601610f73565b925050602061111a85828601611081565b9150509250929050565b60006020828403121561113657600080fd5b600082013567ffffffffffffffff81111561115057600080fd5b61115c84828501610f9d565b91505092915050565b60006020828403121561117757600080fd5b600061118584828501611020565b91505092915050565b6000602082840312156111a057600080fd5b60006111ae84828501611081565b91505092915050565b6111c0816117c5565b82525050565b60006111d182611793565b6111db81856117a9565b93506111eb818560208601611843565b80840191505092915050565b6112008161181f565b82525050565b60006112118261179e565b61121b81856117b4565b935061122b818560208601611843565b61123481611876565b840191505092915050565b600061124c6012836117b4565b91507f6c697374206172726179206973206e756c6c00000000000000000000000000006000830152602082019050919050565b600061128c6026836117b4565b91507f4f776e61626c653a206e6577206f776e657220697320746865207a65726f206160008301527f64647265737300000000000000000000000000000000000000000000000000006020830152604082019050919050565b60006112f2601b836117b4565b91507f536166654d6174683a206164646974696f6e206f766572666c6f7700000000006000830152602082019050919050565b60006113326026836117b4565b91507f416464726573733a20696e73756666696369656e742062616c616e636520666f60008301527f722063616c6c00000000000000000000000000000000000000000000000000006020830152604082019050919050565b60006113986020836117b4565b91507f4f776e61626c653a2063616c6c6572206973206e6f7420746865206f776e65726000830152602082019050919050565b60006113d8601b836117b4565b91507f636c61696d2066726f6d20746865207a65726f206164647265737300000000006000830152602082019050919050565b6000611418601d836117b4565b91507f416464726573733a2063616c6c20746f206e6f6e2d636f6e74726163740000006000830152602082019050919050565b60006114586029836117b4565b91507f746865207769746864726177616c20616d6f756e74206578636565647320746860008301527f652062616c616e636500000000000000000000000000000000000000000000006020830152604082019050919050565b60006114be602a836117b4565b91507f5361666545524332303a204552433230206f7065726174696f6e20646964206e60008301527f6f742073756363656564000000000000000000000000000000000000000000006020830152604082019050919050565b60006115246013836117b4565b91507f7468652062616c616e6365206973207a65726f000000000000000000000000006000830152602082019050919050565b61156081611815565b82525050565b600061157282846111c6565b915081905092915050565b600060208201905061159260008301846111b7565b92915050565b60006040820190506115ad60008301856111b7565b6115ba6020830184611557565b9392505050565b60006020820190506115d660008301846111f7565b92915050565b600060208201905081810360008301526115f68184611206565b905092915050565b600060208201905081810360008301526116178161123f565b9050919050565b600060208201905081810360008301526116378161127f565b9050919050565b60006020820190508181036000830152611657816112e5565b9050919050565b6000602082019050818103600083015261167781611325565b9050919050565b600060208201905081810360008301526116978161138b565b9050919050565b600060208201905081810360008301526116b7816113cb565b9050919050565b600060208201905081810360008301526116d78161140b565b9050919050565b600060208201905081810360008301526116f78161144b565b9050919050565b60006020820190508181036000830152611717816114b1565b9050919050565b6000602082019050818103600083015261173781611517565b9050919050565b6000604051905081810181811067ffffffffffffffff8211171561176157600080fd5b8060405250919050565b600067ffffffffffffffff82111561178257600080fd5b602082029050602081019050919050565b600081519050919050565b600081519050919050565b600081905092915050565b600082825260208201905092915050565b60006117d0826117f5565b9050919050565b60006117e2826117f5565b9050919050565b60008115159050919050565b600073ffffffffffffffffffffffffffffffffffffffff82169050919050565b6000819050919050565b600061182a82611831565b9050919050565b600061183c826117f5565b9050919050565b60005b83811015611861578082015181840152602081019050611846565b83811115611870576000848401525b50505050565b6000601f19601f8301169050919050565b611890816117c5565b811461189b57600080fd5b50565b6118a7816117d7565b81146118b257600080fd5b50565b6118be816117e9565b81146118c957600080fd5b50565b6118d581611815565b81146118e057600080fd5b5056fea2646970667358221220b38584e504341433cef4b28b6c22b2a86dd81eb5170a2231257a08c5f38c774664736f6c634300060c0033",
  "immutableReferences": {},
  "source": "// SPDX-License-Identifier: MIT\r\n\r\npragma solidity >=0.6.12 < 0.7.5;\r\npragma experimental ABIEncoderV2;\r\n\r\nimport \"@openzeppelin/contracts/access/Ownable.sol\";\r\nimport \"@openzeppelin/contracts/token/ERC20/IERC20.sol\";\r\nimport \"@openzeppelin/contracts/token/ERC20/SafeERC20.sol\";\r\nimport \"@openzeppelin/contracts/math/SafeMath.sol\";\r\n\r\ncontract CommunityRewards is Ownable {\r\n    using SafeMath for uint256;\r\n    using SafeERC20 for IERC20;\r\n\r\n    IERC20 private _token;\r\n\r\n    struct RewardsInfo {\r\n        address rewardsToken;\r\n        uint256 rewardsAmount;\r\n    }\r\n\r\n    struct ReportInfo {\r\n        address token;\r\n        uint256 amount;\r\n    }\r\n\r\n    mapping(address => RewardsInfo) public rewardsInfoByToken;\r\n\r\n    constructor(IERC20 token) Ownable() public {\r\n        require(address(token) != address(0), \"token is the zero address\");\r\n        _token = token;\r\n    }\r\n\r\n    function token() public view returns (IERC20) {\r\n        return _token;\r\n    }\r\n\r\n    /**\r\n     * @dev upload report to update rewards list data\r\n     * @param list upload data array\r\n     */\r\n    function updateRewardsList(ReportInfo[] memory list) public onlyOwner {\r\n        require(list.length > 0, \"list array is null\");\r\n        for (uint i = 0; i < list.length; i++) {\r\n            ReportInfo memory reportInfo = list[i];\r\n            _addRewardsTokens(reportInfo.token, reportInfo.amount);\r\n        }\r\n    }\r\n\r\n    /**\r\n     * @dev add rewards list data\r\n     * @param rewardsToken the token of rewards\r\n     * @param rewardsAmount the amount of update\r\n     */\r\n    function _addRewardsTokens(address rewardsToken, uint256 rewardsAmount) internal {\r\n        rewardsAmount = rewardsAmount * (10**uint256(18));\r\n        RewardsInfo storage info = rewardsInfoByToken[rewardsToken];\r\n        if (info.rewardsToken != address(0)) {\r\n            info.rewardsAmount = info.rewardsAmount.add(rewardsAmount);\r\n        } else {\r\n            rewardsInfoByToken[rewardsToken] = RewardsInfo(rewardsToken, rewardsAmount);\r\n        }\r\n    }\r\n\r\n    /**\r\n     * @dev admin claim\r\n     * @param rewardsToken the token of rewards\r\n     * @param claimAmount the amount of claim\r\n     */\r\n    function claimByAdmin(address rewardsToken, uint256 claimAmount) public onlyOwner {\r\n        _claim(rewardsToken, claimAmount);\r\n    }\r\n\r\n    /**\r\n     * @dev self claim\r\n     * @param claimAmount the amount of claim\r\n     */\r\n    function claim(uint256 claimAmount) public {\r\n        _claim(msg.sender, claimAmount);\r\n    }\r\n\r\n    /**\r\n     * @dev common claim function\r\n     * @param rewardsToken the token of rewards\r\n     * @param claimAmount the amount of claim\r\n     */\r\n    function _claim(address rewardsToken, uint256 claimAmount) internal {\r\n        // Not is 0x address\r\n        require(rewardsToken != address(0), 'claim from the zero address');\r\n        RewardsInfo storage info = rewardsInfoByToken[rewardsToken];\r\n        // the claimAmount must be gt zero\r\n        require(claimAmount > 0, 'the balance is zero');\r\n        // the balance must be gt zero\r\n        require(info.rewardsAmount > 0, 'the balance is zero');\r\n        // claimAmount must be lt or equal rewardsAmount\r\n        require(claimAmount <= info.rewardsAmount, 'the withdrawal amount exceeds the balance');\r\n\r\n        _token.safeTransfer(rewardsToken, claimAmount);\r\n        info.rewardsAmount = info.rewardsAmount.sub(claimAmount);\r\n    }\r\n\r\n    function killSelf(address payable recipientToken) public onlyOwner {\r\n        selfdestruct(recipientToken);\r\n    }\r\n}\r\n",
  "sourcePath": "/home/blues/Workspaces/Daoswap/daoswap-rinkeby/daoswap-community-rewards-rinkeby/contracts/CommunityRewards.sol",
  "compiler": {
    "name": "solc",
    "version": "0.6.12+commit.27d51765.Emscripten.clang"
  },
  "schemaVersion": "3.3.3",
  "updatedAt": "2021-01-01T15:53:29.828Z",
  "networkType": "ethereum",
  "devdoc": {
    "kind": "dev",
    "methods": {
      "claim(uint256)": {
        "details": "self claim",
        "params": {
          "claimAmount": "the amount of claim"
        }
      },
      "claimByAdmin(address,uint256)": {
        "details": "admin claim",
        "params": {
          "claimAmount": "the amount of claim",
          "rewardsToken": "the token of rewards"
        }
      },
      "owner()": {
        "details": "Returns the address of the current owner."
      },
      "renounceOwnership()": {
        "details": "Leaves the contract without owner. It will not be possible to call `onlyOwner` functions anymore. Can only be called by the current owner. NOTE: Renouncing ownership will leave the contract without an owner, thereby removing any functionality that is only available to the owner."
      },
      "transferOwnership(address)": {
        "details": "Transfers ownership of the contract to a new account (`newOwner`). Can only be called by the current owner."
      },
      "updateRewardsList((address,uint256)[])": {
        "details": "upload report to update rewards list data",
        "params": {
          "list": "upload data array"
        }
      }
    },
    "version": 1
  },
  "userdoc": {
    "kind": "user",
    "methods": {},
    "version": 1
  }
}